:100000000C94D2000C9429010C945A010C94F10028
:100010000C94F1000C94F1000C94F1000C94F1009C
:100020000C94F1000C94F1000C94F1000C94F1008C
:100030000C94F1000C94F1000C94F1000C94F1007C
:100040000C94F1000C94F1000C94F1000C94F1006C
:100050000C94F1000C94F1000C94F1000C949001BC
:100060000C94F1000C94F1000C94F1000C94F1004C
:100070000C94F1000C94F1000C94F1000C94F1003C
:100080000C94F1000C94F1000C94F1000C94F1002C
:100090000C94F1000C94F1000C94F1000C94F1001C
:1000A0000C94F1000C94F1000C94F1000C94F1000C
:1000B0000C94F1000C94F1000C94F1000C94F100FC
:1000C0000C94F1000C94F1000C94F100000021005C
:1000D000240027002A002D003000330000002200F9
:1000E000250028002B002E003100340000002000E5
:1000F0002300260029002C002F00320005050404EF
:1001000004040404050507050202020201010101BD
:1001100001010101030303030303030305050504B0
:100120000404040707070707020202020606060680
:10013000060606060102040802010102102020083A
:1001400010204080010204081020408001020408B1
:1001500010204080044080102040800102040810DC
:100160000102040801020408102040800000000081
:1001700000000000090A0208060304010000000054
:10018000000000000000000000000000000000006F
:10019000000000000000000000000000000000005F
:1001A0000000000011241FBECFEFD1E2DEBFCDBFA3
:1001B00012E0A0E0B2E0E6E8F9E000E00BBF02C028
:1001C00007900D92A230B107D9F712E0A2E0B2E099
:1001D00001C01D92AF30B107E1F70E948D010C9470
:1001E000C1040C940000823008F00895E82FF0E07C
:1001F000EE0FFF1FEE5FFD4F71836083882341F494
:10020000809169008C7F842B80936900E89A08951F
:10021000813059F780916900440F551F440F551FD5
:10022000837F842B80936900E99A0895823008F0D7
:100230000895882361F0813009F4E998E82FF0E00F
:10024000EE0FFF1FEE5FFD4F118210820895E898B8
:10025000F5CF1F920F920FB60F920BB60F9211248B
:100260002F933F934F935F936F937F938F939F93BE
:10027000AF93BF93EF93FF9380910202909103029B
:10028000892B29F0E0910202F09103020995FF9178
:10029000EF91BF91AF919F918F917F916F915F91FE
:1002A0004F913F912F910F900BBE0F900FBE0F906B
:1002B0001F9018951F920F920FB60F920BB60F92C8
:1002C00011242F933F934F935F936F937F938F935B
:1002D0009F93AF93BF93EF93FF938091040290910C
:1002E0000502892B29F0E0910402F091050209959D
:1002F000FF91EF91BF91AF919F918F917F916F91FE
:100300005F914F913F912F910F900BBE0F900FBEB9
:100310000F901F901895089508950E944A02FFCFEC
:100320001F920F920FB60F9211242F933F938F932A
:100330009F93AF93BF9380910A0290910B02A0917B
:100340000C02B0910D0230910E020196A11DB11D5B
:10035000232F2D5F2D3720F02D570196A11DB11DA4
:1003600020930E0280930A0290930B02A0930C023A
:10037000B0930D028091060290910702A0910802AD
:10038000B09109020196A11DB11D809306029093C0
:100390000702A0930802B0930902BF91AF919F9109
:1003A0008F913F912F910F900FBE0F901F90189536
:1003B0008FB7F89420910A0230910B0240910C0201
:1003C00050910D028FBFB901CA0108956FB7F8941B
:1003D00086B590E0A0E0B0E0A89B08C00097A1051A
:1003E000B10521F480E091E0A0E0B0E020910602A8
:1003F0003091070240910802509109026FBF542FBB
:10040000432F322F2227280F391F4A1F5B1F220F2D
:10041000331F441F551F220F331F441F551FB9019F
:10042000CA010895EF92FF920F931F937B018C01F5
:100430008FB7F89440910A0250910B0260910C0220
:1004400070910D028FBF2FB7F89480910A0290919E
:100450000B02A0910C02B0910D022FBF841B950BD3
:10046000A60BB70BE816F9060A071B0760F71F91E2
:100470000F91FF90EF900895019759F0FC01EE0F56
:10048000FF1FEE0FFF1F32978FB7F8943197F1F7E8
:100490008FBF0895789484B5826084BD84B58160EF
:1004A00084BD85B5826085BD85B5816085BDEEE67C
:1004B000F0E0808181608083E1E8F0E0808182600B
:1004C0008083808181608083E0E8F0E080818160CA
:1004D0008083E1EBF0E0808184608083E0EBF0E0FA
:1004E000808181608083EAE7F0E08081846080839E
:1004F0008081826080838081816080838081806848
:1005000080831092C10008958093000208958F7037
:10051000909100029295990F990F907C982B90934F
:100520007C0080917A00806480937A0080917A00C8
:1005300086FDFCCF2091780040917900942F80E0D7
:1005400030E0282B392BC90108951F93CF93DF93F7
:10055000182FEB0161E00E940B03E12FF0E0E4595A
:10056000FE4F84918330A1F08430F9F0813051F155
:10057000823009F441C0863079F1873009F443C0F4
:10058000C038D1058CF1812F61E00E942B0309C096
:1005900080918000806880938000D0938900C09310
:1005A0008800DF91CF911F91089580918000806233
:1005B00080938000D0938B00C0938A00DF91CF910D
:1005C0001F910895209781F084B5806884BDC7BDD0
:1005D000DF91CF911F9108958091B0008068809342
:1005E000B000C093B300DDCF812F60E00E942B03E9
:1005F000DF91CF911F9108952097B1F384B5806268
:1006000084BDC8BDCECF8091B00080628093B00021
:10061000C093B400C6CF282F30E0C9018C5C9E4F38
:10062000FC01949124503F4FF9018491882369F093
:10063000E82FF0E0EE0FFF1FE453FF4FA591B491B8
:10064000662321F08C91892B8C9308958C91909541
:1006500089238C930895482F50E0CA0184599E4FF6
:10066000FC012491CA018C5C9E4FFC019491445082
:100670005F4FFA0134913323C1F0222349F0233034
:10068000D1F02430F1F0213011F584B58F7784BD9D
:10069000E32FF0E0EE0FFF1FE452FF4FA591B4915E
:1006A000662321F08C91892B8C9308958C919095E1
:1006B00089238C930895809180008F7780938000A8
:1006C000E7CF809180008F7D80938000E1CF223042
:1006D00021F484B58F7D84BDDBCF263031F4809149
:1006E000B0008F778093B000D3CF273089F6809108
:1006F000B0008F7D8093B000CBCF682F70E0CB012E
:1007000084599E4FFC012491CB018C5C9E4FFC01CF
:10071000449164507F4FFB0194919923F9F0222377
:1007200049F02330F9F0243019F1213039F584B53E
:100730008F7784BD892F90E0880F991F84519F4F38
:10074000FC01A591B4918C9120E030E0842311F458
:10075000C901089521E030E0C901089520E030E0AA
:10076000C9010895809180008F7780938000E2CF47
:10077000809180008F7D80938000DCCF223021F437
:1007800084B58F7D84BDD6CF263031F48091B00002
:100790008F778093B000CECF273061F68091B00084
:1007A0008F7D8093B000C6CFDF92EF92FF920F93C0
:1007B0001F93A82FB0E0CD018C5C9E4FFC01D4901C
:1007C000A450BF4FFD0184916623A1F590E06FEF27
:1007D000E62E6FEFF62E6FEF062F6FE0162FE22258
:1007E000F32204231523682F70E0660F771F6451EE
:1007F0007F4F20E030E040E050E0FB01A591B49154
:1008000004C02F5F3F4F4F4F5F4F8C918D21981742
:1008100099F42E153F054007510799F720E030E085
:1008200040E050E0B901CA011F910F91FF90EF9095
:10083000DF9008959D2DCBCFFB01A591B49104C00D
:100840002F5F3F4F4F4F5F4F8C918D21981731F0A5
:100850002E153F054007510799F7E0CF8C918D2168
:10086000981729F520E030E040E050E0FB01A59129
:10087000B4912F5F3F4F4F4F5F4F8C918D21981751
:10088000C1F3CA01B9012AE030E040E050E00E9423
:10089000A2049B01AC01205F3F4F4F4F5F4F84E0AC
:1008A00056954795379527958A95D1F7BBCF21E087
:1008B00030E040E050E0B6CFAF92BF92DF92EF92CF
:1008C000FF920F931F93CF93DF93D82EF62EE42E33
:1008D000C0E0D0E0022F10E087E0A82EB12C17C0B6
:1008E000B8010C2E02C0759567950A94E2F7617005
:1008F0008D2D0E942B038F2D61E00E942B038F2DE5
:1009000060E00E942B032196C830D10589F0EE20CB
:1009100039F3B5016C1B7D0BC80102C09595879515
:100920006A95E2F7BC0161708D2D0E942B03E3CF25
:10093000DF91CF911F910F91FF90EF90DF90BF90CB
:10094000AF900895629FD001739FF001829FE00DE8
:10095000F11D649FE00DF11D929FF00D839FF00D3E
:10096000749FF00D659FF00D9927729FB00DE11DEA
:10097000F91F639FB00DE11DF91FBD01CF011124C7
:060980000895F894FFCF7A
:0209860001006E
:00000001FF
